{"abi":[{"type":"function","name":"RELATIVE_BROADCAST_PATH","inputs":[],"outputs":[{"name":"","type":"string","internalType":"string"}],"stateMutability":"view"},{"type":"function","name":"vm","inputs":[],"outputs":[{"name":"","type":"Vm","internalType":"contract Vm"}],"stateMutability":"view"}],"bytecode":{"object":"0x61023761004d600b8282823980515f1a6073146041577f4e487b71000000000000000000000000000000000000000000000000000000005f525f60045260245ffd5b305f52607381538281f3fe730000000000000000000000000000000000000000301460806040526004361061003f575f3560e01c80632aa1c696146100435780633a76846314610061575b5f5ffd5b61004b61007f565b604051610058919061014e565b60405180910390f35b6100696100b8565b60405161007691906101e8565b60405180910390f35b6040518060400160405280600b81526020017f2e2f62726f61646361737400000000000000000000000000000000000000000081525081565b7f885cb69240a935d632d79c317109709ecfa91a80626ff3989d68f67f5b1dd12d5f1c81565b5f81519050919050565b5f82825260208201905092915050565b8281835e5f83830152505050565b5f601f19601f8301169050919050565b5f610120826100de565b61012a81856100e8565b935061013a8185602086016100f8565b61014381610106565b840191505092915050565b5f6020820190508181035f8301526101668184610116565b905092915050565b5f73ffffffffffffffffffffffffffffffffffffffff82169050919050565b5f819050919050565b5f6101b06101ab6101a68461016e565b61018d565b61016e565b9050919050565b5f6101c182610196565b9050919050565b5f6101d2826101b7565b9050919050565b6101e2816101c8565b82525050565b5f6020820190506101fb5f8301846101d9565b9291505056fea2646970667358221220be374bd39a3c5094c7d63d3a4dc6e3c5d8dbe96262c6fe7e3c90780224e9da9964736f6c634300081e0033","linkReferences":{}},"methodIdentifiers":{"RELATIVE_BROADCAST_PATH()":"2aa1c696","vm()":"3a768463"},"id":21}