{"abi":[{"type":"constructor","inputs":[{"name":"_decimals","type":"uint8","internalType":"uint8"},{"name":"_initialAnswer","type":"int256","internalType":"int256"}],"stateMutability":"nonpayable"},{"type":"function","name":"decimals","inputs":[],"outputs":[{"name":"","type":"uint8","internalType":"uint8"}],"stateMutability":"view"},{"type":"function","name":"description","inputs":[],"outputs":[{"name":"","type":"string","internalType":"string"}],"stateMutability":"pure"},{"type":"function","name":"getAnswer","inputs":[{"name":"","type":"uint256","internalType":"uint256"}],"outputs":[{"name":"","type":"int256","internalType":"int256"}],"stateMutability":"view"},{"type":"function","name":"getRoundData","inputs":[{"name":"_roundId","type":"uint80","internalType":"uint80"}],"outputs":[{"name":"roundId","type":"uint80","internalType":"uint80"},{"name":"answer","type":"int256","internalType":"int256"},{"name":"startedAt","type":"uint256","internalType":"uint256"},{"name":"updatedAt","type":"uint256","internalType":"uint256"},{"name":"answeredInRound","type":"uint80","internalType":"uint80"}],"stateMutability":"view"},{"type":"function","name":"getTimestamp","inputs":[{"name":"","type":"uint256","internalType":"uint256"}],"outputs":[{"name":"","type":"uint256","internalType":"uint256"}],"stateMutability":"view"},{"type":"function","name":"latestAnswer","inputs":[],"outputs":[{"name":"","type":"int256","internalType":"int256"}],"stateMutability":"view"},{"type":"function","name":"latestRound","inputs":[],"outputs":[{"name":"","type":"uint256","internalType":"uint256"}],"stateMutability":"view"},{"type":"function","name":"latestRoundData","inputs":[],"outputs":[{"name":"roundId","type":"uint80","internalType":"uint80"},{"name":"answer","type":"int256","internalType":"int256"},{"name":"startedAt","type":"uint256","internalType":"uint256"},{"name":"updatedAt","type":"uint256","internalType":"uint256"},{"name":"answeredInRound","type":"uint80","internalType":"uint80"}],"stateMutability":"view"},{"type":"function","name":"latestTimestamp","inputs":[],"outputs":[{"name":"","type":"uint256","internalType":"uint256"}],"stateMutability":"view"},{"type":"function","name":"updateAnswer","inputs":[{"name":"_answer","type":"int256","internalType":"int256"}],"outputs":[],"stateMutability":"nonpayable"},{"type":"function","name":"updateRoundData","inputs":[{"name":"_roundId","type":"uint80","internalType":"uint80"},{"name":"_answer","type":"int256","internalType":"int256"},{"name":"_timestamp","type":"uint256","internalType":"uint256"},{"name":"_startedAt","type":"uint256","internalType":"uint256"}],"outputs":[],"stateMutability":"nonpayable"},{"type":"function","name":"version","inputs":[],"outputs":[{"name":"","type":"uint256","internalType":"uint256"}],"stateMutability":"view"}],"bytecode":{"object":"0x608060405234801561000f575f5ffd5b50604051610a49380380610a498339818101604052810190610031919061013d565b815f5f6101000a81548160ff021916908360ff1602179055506100598161006060201b60201c565b50506101f8565b806001819055504260028190555060035f815480929190610080906101b1565b91905055508060045f60035481526020019081526020015f20819055504260055f60035481526020019081526020015f20819055504260065f60035481526020019081526020015f208190555050565b5f5ffd5b5f60ff82169050919050565b6100e9816100d4565b81146100f3575f5ffd5b50565b5f81519050610104816100e0565b92915050565b5f819050919050565b61011c8161010a565b8114610126575f5ffd5b50565b5f8151905061013781610113565b92915050565b5f5f60408385031215610153576101526100d0565b5b5f610160858286016100f6565b925050602061017185828601610129565b9150509250929050565b7f4e487b71000000000000000000000000000000000000000000000000000000005f52601160045260245ffd5b5f819050919050565b5f6101bb826101a8565b91507fffffffffffffffffffffffffffffffffffffffffffffffffffffffffffffffff82036101ed576101ec61017b565b5b600182019050919050565b610844806102055f395ff3fe608060405234801561000f575f5ffd5b50600436106100b2575f3560e01c80638205bf6a1161006f5780638205bf6a146101685780639a6fc8f514610186578063a87a20ce146101ba578063b5ab58dc146101d6578063b633620c14610206578063feaf968c14610236576100b2565b8063313ce567146100b65780634aa2011f146100d457806350d25bcd146100f057806354fd4d501461010e578063668a0f021461012c5780637284e4161461014a575b5f5ffd5b6100be610258565b6040516100cb9190610490565b60405180910390f35b6100ee60048036038101906100e99190610552565b610269565b005b6100f86102d8565b60405161010591906105c5565b60405180910390f35b6101166102de565b60405161012391906105ed565b60405180910390f35b6101346102e3565b60405161014191906105ed565b60405180910390f35b6101526102e9565b60405161015f9190610676565b60405180910390f35b610170610309565b60405161017d91906105ed565b60405180910390f35b6101a0600480360381019061019b9190610696565b61030f565b6040516101b19594939291906106d0565b60405180910390f35b6101d460048036038101906101cf9190610721565b610383565b005b6101f060048036038101906101eb919061074c565b6103f3565b6040516101fd91906105c5565b60405180910390f35b610220600480360381019061021b919061074c565b610408565b60405161022d91906105ed565b60405180910390f35b61023e61041d565b60405161024f9594939291906106d0565b60405180910390f35b5f5f9054906101000a900460ff1681565b8369ffffffffffffffffffff1660038190555082600181905550816002819055508260045f60035481526020019081526020015f20819055508160055f60035481526020019081526020015f20819055508060065f60035481526020019081526020015f208190555050505050565b60015481565b600481565b60035481565b60606040518060600160405280602381526020016107ec60239139905090565b60025481565b5f5f5f5f5f8560045f8869ffffffffffffffffffff1681526020019081526020015f205460065f8969ffffffffffffffffffff1681526020019081526020015f205460055f8a69ffffffffffffffffffff1681526020019081526020015f2054899450945094509450945091939590929450565b806001819055504260028190555060035f8154809291906103a3906107a4565b91905055508060045f60035481526020019081526020015f20819055504260055f60035481526020019081526020015f20819055504260065f60035481526020019081526020015f208190555050565b6004602052805f5260405f205f915090505481565b6005602052805f5260405f205f915090505481565b5f5f5f5f5f60035460045f60035481526020019081526020015f205460065f60035481526020019081526020015f205460055f60035481526020019081526020015f2054600354945094509450945094509091929394565b5f60ff82169050919050565b61048a81610475565b82525050565b5f6020820190506104a35f830184610481565b92915050565b5f5ffd5b5f69ffffffffffffffffffff82169050919050565b6104cb816104ad565b81146104d5575f5ffd5b50565b5f813590506104e6816104c2565b92915050565b5f819050919050565b6104fe816104ec565b8114610508575f5ffd5b50565b5f81359050610519816104f5565b92915050565b5f819050919050565b6105318161051f565b811461053b575f5ffd5b50565b5f8135905061054c81610528565b92915050565b5f5f5f5f6080858703121561056a576105696104a9565b5b5f610577878288016104d8565b94505060206105888782880161050b565b93505060406105998782880161053e565b92505060606105aa8782880161053e565b91505092959194509250565b6105bf816104ec565b82525050565b5f6020820190506105d85f8301846105b6565b92915050565b6105e78161051f565b82525050565b5f6020820190506106005f8301846105de565b92915050565b5f81519050919050565b5f82825260208201905092915050565b8281835e5f83830152505050565b5f601f19601f8301169050919050565b5f61064882610606565b6106528185610610565b9350610662818560208601610620565b61066b8161062e565b840191505092915050565b5f6020820190508181035f83015261068e818461063e565b905092915050565b5f602082840312156106ab576106aa6104a9565b5b5f6106b8848285016104d8565b91505092915050565b6106ca816104ad565b82525050565b5f60a0820190506106e35f8301886106c1565b6106f060208301876105b6565b6106fd60408301866105de565b61070a60608301856105de565b61071760808301846106c1565b9695505050505050565b5f60208284031215610736576107356104a9565b5b5f6107438482850161050b565b91505092915050565b5f60208284031215610761576107606104a9565b5b5f61076e8482850161053e565b91505092915050565b7f4e487b71000000000000000000000000000000000000000000000000000000005f52601160045260245ffd5b5f6107ae8261051f565b91507fffffffffffffffffffffffffffffffffffffffffffffffffffffffffffffffff82036107e0576107df610777565b5b60018201905091905056fe76302e362f746573742f6d6f636b2f4d6f636b563341676772656761746f722e736f6ca264697066735822122033c867a8ae45e81ca20dae5050f95c568fece95a47889a420fefff53279d404064736f6c634300081e0033","linkReferences":{}},"methodIdentifiers":{"decimals()":"313ce567","description()":"7284e416","getAnswer(uint256)":"b5ab58dc","getRoundData(uint80)":"9a6fc8f5","getTimestamp(uint256)":"b633620c","latestAnswer()":"50d25bcd","latestRound()":"668a0f02","latestRoundData()":"feaf968c","latestTimestamp()":"8205bf6a","updateAnswer(int256)":"a87a20ce","updateRoundData(uint80,int256,uint256,uint256)":"4aa2011f","version()":"54fd4d50"},"storageLayout":{"storage":[{"astId":40185,"contract":"test/mocks/MockV3Aggregator.sol:MockV3Aggregator","label":"decimals","offset":0,"slot":"0","type":"t_uint8"},{"astId":40187,"contract":"test/mocks/MockV3Aggregator.sol:MockV3Aggregator","label":"latestAnswer","offset":0,"slot":"1","type":"t_int256"},{"astId":40189,"contract":"test/mocks/MockV3Aggregator.sol:MockV3Aggregator","label":"latestTimestamp","offset":0,"slot":"2","type":"t_uint256"},{"astId":40191,"contract":"test/mocks/MockV3Aggregator.sol:MockV3Aggregator","label":"latestRound","offset":0,"slot":"3","type":"t_uint256"},{"astId":40195,"contract":"test/mocks/MockV3Aggregator.sol:MockV3Aggregator","label":"getAnswer","offset":0,"slot":"4","type":"t_mapping(t_uint256,t_int256)"},{"astId":40199,"contract":"test/mocks/MockV3Aggregator.sol:MockV3Aggregator","label":"getTimestamp","offset":0,"slot":"5","type":"t_mapping(t_uint256,t_uint256)"},{"astId":40203,"contract":"test/mocks/MockV3Aggregator.sol:MockV3Aggregator","label":"getStartedAt","offset":0,"slot":"6","type":"t_mapping(t_uint256,t_uint256)"}],"types":{"t_int256":{"encoding":"inplace","label":"int256","numberOfBytes":"32"},"t_mapping(t_uint256,t_int256)":{"encoding":"mapping","key":"t_uint256","label":"mapping(uint256 => int256)","numberOfBytes":"32","value":"t_int256"},"t_mapping(t_uint256,t_uint256)":{"encoding":"mapping","key":"t_uint256","label":"mapping(uint256 => uint256)","numberOfBytes":"32","value":"t_uint256"},"t_uint256":{"encoding":"inplace","label":"uint256","numberOfBytes":"32"},"t_uint8":{"encoding":"inplace","label":"uint8","numberOfBytes":"1"}}},"id":26}