{"abi":[{"type":"constructor","inputs":[{"name":"priceFeed","type":"address","internalType":"address"}],"stateMutability":"nonpayable"},{"type":"fallback","stateMutability":"payable"},{"type":"receive","stateMutability":"payable"},{"type":"function","name":"MINIMUM_USD","inputs":[],"outputs":[{"name":"","type":"uint256","internalType":"uint256"}],"stateMutability":"view"},{"type":"function","name":"addressToAmountFunded","inputs":[{"name":"","type":"address","internalType":"address"}],"outputs":[{"name":"","type":"uint256","internalType":"uint256"}],"stateMutability":"view"},{"type":"function","name":"checkBalance","inputs":[],"outputs":[{"name":"","type":"uint256","internalType":"uint256"}],"stateMutability":"view"},{"type":"function","name":"fund","inputs":[],"outputs":[],"stateMutability":"payable"},{"type":"function","name":"getAddressToAmountFunded","inputs":[{"name":"fundingAddress","type":"address","internalType":"address"}],"outputs":[{"name":"","type":"uint256","internalType":"uint256"}],"stateMutability":"view"},{"type":"function","name":"getFunder","inputs":[{"name":"index","type":"uint256","internalType":"uint256"}],"outputs":[{"name":"","type":"address","internalType":"address"}],"stateMutability":"view"},{"type":"function","name":"getOwner","inputs":[],"outputs":[{"name":"","type":"address","internalType":"address"}],"stateMutability":"view"},{"type":"function","name":"withdraw","inputs":[],"outputs":[],"stateMutability":"nonpayable"},{"type":"error","name":"NotOwner","inputs":[]}],"bytecode":{"object":"0x60a060405234801561000f575f5ffd5b50604051610e3c380380610e3c83398181016040528101906100319190610109565b3373ffffffffffffffffffffffffffffffffffffffff1660808173ffffffffffffffffffffffffffffffffffffffff16815250508060025f6101000a81548173ffffffffffffffffffffffffffffffffffffffff021916908373ffffffffffffffffffffffffffffffffffffffff16021790555050610134565b5f5ffd5b5f73ffffffffffffffffffffffffffffffffffffffff82169050919050565b5f6100d8826100af565b9050919050565b6100e8816100ce565b81146100f2575f5ffd5b50565b5f81519050610103816100df565b92915050565b5f6020828403121561011e5761011d6100ab565b5b5f61012b848285016100f5565b91505092915050565b608051610ce96101535f395f818161036301526105b80152610ce95ff3fe60806040526004361061007e575f3560e01c8063893d20e81161004d578063893d20e81461014f578063b60d428814610179578063c71daccb14610183578063d7b4750c146101ad5761008d565b80630343fb25146100975780633ccfd60b146100d35780633e47d6f3146100e95780636b69a592146101255761008d565b3661008d5761008b6101e9565b005b6100956101e9565b005b3480156100a2575f5ffd5b506100bd60048036038101906100b891906107ee565b61031b565b6040516100ca9190610831565b60405180910390f35b3480156100de575f5ffd5b506100e7610361565b005b3480156100f4575f5ffd5b5061010f600480360381019061010a91906107ee565b610594565b60405161011c9190610831565b60405180910390f35b348015610130575f5ffd5b506101396105a9565b6040516101469190610831565b60405180910390f35b34801561015a575f5ffd5b506101636105b5565b6040516101709190610859565b60405180910390f35b6101816101e9565b005b34801561018e575f5ffd5b506101976105dc565b6040516101a49190610831565b60405180910390f35b3480156101b8575f5ffd5b506101d360048036038101906101ce919061089c565b6105e3565b6040516101e09190610859565b60405180910390f35b674563918244f4000061022660025f9054906101000a900473ffffffffffffffffffffffffffffffffffffffff163461062690919063ffffffff16565b1015610267576040517f08c379a000000000000000000000000000000000000000000000000000000000815260040161025e90610921565b60405180910390fd5b5f33908060018154018082558091505060019003905f5260205f20015f9091909190916101000a81548173ffffffffffffffffffffffffffffffffffffffff021916908373ffffffffffffffffffffffffffffffffffffffff1602179055503460015f3373ffffffffffffffffffffffffffffffffffffffff1673ffffffffffffffffffffffffffffffffffffffff1681526020019081526020015f205f828254610312919061096c565b92505081905550565b5f60015f8373ffffffffffffffffffffffffffffffffffffffff1673ffffffffffffffffffffffffffffffffffffffff1681526020019081526020015f20549050919050565b7f000000000000000000000000000000000000000000000000000000000000000073ffffffffffffffffffffffffffffffffffffffff163373ffffffffffffffffffffffffffffffffffffffff16146103e6576040517f30cd747100000000000000000000000000000000000000000000000000000000815260040160405180910390fd5b5f5f8054905090505f5f90505b81811015610489575f5f828154811061040f5761040e61099f565b5b905f5260205f20015f9054906101000a900473ffffffffffffffffffffffffffffffffffffffff1690505f60015f8373ffffffffffffffffffffffffffffffffffffffff1673ffffffffffffffffffffffffffffffffffffffff1681526020019081526020015f20819055505080806001019150506103f3565b505f67ffffffffffffffff8111156104a4576104a36109cc565b5b6040519080825280602002602001820160405280156104d25781602001602082028036833780820191505090505b505f90805190602001906104e79291906106ee565b505f3373ffffffffffffffffffffffffffffffffffffffff164760405161050d90610a26565b5f6040518083038185875af1925050503d805f8114610547576040519150601f19603f3d011682016040523d82523d5f602084013e61054c565b606091505b5050905080610590576040517f08c379a000000000000000000000000000000000000000000000000000000000815260040161058790610a84565b60405180910390fd5b5050565b6001602052805f5260405f205f915090505481565b674563918244f4000081565b5f7f0000000000000000000000000000000000000000000000000000000000000000905090565b5f47905090565b5f5f82815481106105f7576105f661099f565b5b905f5260205f20015f9054906101000a900473ffffffffffffffffffffffffffffffffffffffff169050919050565b5f5f61063183610660565b90505f670de0b6b3a764000085836106499190610aa2565b6106539190610b10565b9050809250505092915050565b5f5f8273ffffffffffffffffffffffffffffffffffffffff1663feaf968c6040518163ffffffff1660e01b815260040160a060405180830381865afa1580156106ab573d5f5f3e3d5ffd5b505050506040513d601f19601f820116820180604052508101906106cf9190610bc6565b5050509150506402540be400816106e69190610c3d565b915050919050565b828054828255905f5260205f20908101928215610764579160200282015b82811115610763578251825f6101000a81548173ffffffffffffffffffffffffffffffffffffffff021916908373ffffffffffffffffffffffffffffffffffffffff1602179055509160200191906001019061070c565b5b5090506107719190610775565b5090565b5b8082111561078c575f815f905550600101610776565b5090565b5f5ffd5b5f73ffffffffffffffffffffffffffffffffffffffff82169050919050565b5f6107bd82610794565b9050919050565b6107cd816107b3565b81146107d7575f5ffd5b50565b5f813590506107e8816107c4565b92915050565b5f6020828403121561080357610802610790565b5b5f610810848285016107da565b91505092915050565b5f819050919050565b61082b81610819565b82525050565b5f6020820190506108445f830184610822565b92915050565b610853816107b3565b82525050565b5f60208201905061086c5f83018461084a565b92915050565b61087b81610819565b8114610885575f5ffd5b50565b5f8135905061089681610872565b92915050565b5f602082840312156108b1576108b0610790565b5b5f6108be84828501610888565b91505092915050565b5f82825260208201905092915050565b7f6469646e742073656e6420656e6f7567682065746800000000000000000000005f82015250565b5f61090b6015836108c7565b9150610916826108d7565b602082019050919050565b5f6020820190508181035f830152610938816108ff565b9050919050565b7f4e487b71000000000000000000000000000000000000000000000000000000005f52601160045260245ffd5b5f61097682610819565b915061098183610819565b92508282019050808211156109995761099861093f565b5b92915050565b7f4e487b71000000000000000000000000000000000000000000000000000000005f52603260045260245ffd5b7f4e487b71000000000000000000000000000000000000000000000000000000005f52604160045260245ffd5b5f81905092915050565b50565b5f610a115f836109f9565b9150610a1c82610a03565b5f82019050919050565b5f610a3082610a06565b9150819050919050565b7f43616c6c204661696c65640000000000000000000000000000000000000000005f82015250565b5f610a6e600b836108c7565b9150610a7982610a3a565b602082019050919050565b5f6020820190508181035f830152610a9b81610a62565b9050919050565b5f610aac82610819565b9150610ab783610819565b9250828202610ac581610819565b91508282048414831517610adc57610adb61093f565b5b5092915050565b7f4e487b71000000000000000000000000000000000000000000000000000000005f52601260045260245ffd5b5f610b1a82610819565b9150610b2583610819565b925082610b3557610b34610ae3565b5b828204905092915050565b5f69ffffffffffffffffffff82169050919050565b610b5e81610b40565b8114610b68575f5ffd5b50565b5f81519050610b7981610b55565b92915050565b5f819050919050565b610b9181610b7f565b8114610b9b575f5ffd5b50565b5f81519050610bac81610b88565b92915050565b5f81519050610bc081610872565b92915050565b5f5f5f5f5f60a08688031215610bdf57610bde610790565b5b5f610bec88828901610b6b565b9550506020610bfd88828901610b9e565b9450506040610c0e88828901610bb2565b9350506060610c1f88828901610bb2565b9250506080610c3088828901610b6b565b9150509295509295909350565b5f610c4782610b7f565b9150610c5283610b7f565b9250828202610c6081610b7f565b91507f800000000000000000000000000000000000000000000000000000000000000084145f84121615610c9757610c9661093f565b5b8282058414831517610cac57610cab61093f565b5b509291505056fea2646970667358221220dcfe8ee4ba5a08b39f16b8bb1df66d32cf0a9957acb45485290a2a6ce3c442f864736f6c634300081e0033","linkReferences":{}},"methodIdentifiers":{"MINIMUM_USD()":"6b69a592","addressToAmountFunded(address)":"3e47d6f3","checkBalance()":"c71daccb","fund()":"b60d4288","getAddressToAmountFunded(address)":"0343fb25","getFunder(uint256)":"d7b4750c","getOwner()":"893d20e8","withdraw()":"3ccfd60b"},"id":18}